:100000000C9433280C9464280C9464280C94642871
:100010000C9464280C9464280C9464280C94642830
:100020000C9464280C9464280C9464280C94642820
:100030000C9464280C9464280C9464280C94642810
:100040000C9464280C9464280C9464280C94642800
:100050000C9464280C9464280C9464280C94626DAD
:100060000C9464280C9464280C9464280C946428E0
:100070000C9464280C9464280C9464280C946428D0
:100080000C9464280C9464280C9464280C946428C0
:100090000C9464280C9464280C9464280C94BD6D12
:1000A0000C9464280C9464280C9464280C946428A0
:1000B0000C9464280C9464280C9464280C94642890
:1000C0000C9464280C9464280C9464280C94642880
:1000D0000C9464280C9464280C9464280C94642870
:1000E0000C94642805A84CCDB2D44EB93836A90278
:1000F0000C50B9918688083CA6AAAA2ABE00000026
:10010000803F00407A10F35A00A0724E1809001088
:10011000A5D4E80000E87648170000E40B5402007C
:1001200000CA9A3B000000E1F505000080969800A7
:10013000000040420F000000A086010000001027D0
:1001400000000000E8030000000064000000000060
:100150000A00000000000100000000002C76D88892
:10016000DC674F0823DFC1DFAE59E1B1B796E5E3A5
:10017000E453C63AE651997696E8E6C28426EB89BE
:100180008C9B62ED407C6FFCEFBC9C9F40F2BAA55B
:100190006FA5F490055A2AF75C936B6CF9676DC1F3
:1001A0001BFCE0E40D47FEF520E6B500D0ED902EF7
:1001B0000300943577050080841E080000204E0A55
:1001C000000000C80C333333330F986E1283114193
:1001D000EF8D2114893BE65516CFFEE6DB18D1845E
:1001E0004B381BF77C1D901DA4BBE4242032847285
:1001F0005E228100C9F124ECA1E53D272032300ABE
:10020000000000000000000000FFFE0001FFFF00F2
:1002100003FFFF8001FFFF600CFFFEF01E0001F8EE
:100220003F0001F83F0001F83F0001F83F0001F8EE
:100230003F0001F83F0001F83F0001F83F0001F8DE
:100240003F0001F83F0001F83F0001F83F0001F8CE
:100250003F0001F83E000078380000182000000838
:100260000000000020000000380000183E00007868
:100270003F0001F83F0001F83F0001F83F0001F89E
:100280003F0001F83F0001F83F0001F83F0001F88E
:100290003F0001F83F0001F83F0001F83F0001F87E
:1002A0003F0001F83F0001F81E0000F00CFFFE6067
:1002B00001FFFF0003FFFF8001FFFF0000FFFE00C2
:1002C000000000000000000000000000000000002E
:1002D00000000000000000000000000000000060BE
:1002E000000000F0000001F8000001F8000001F833
:1002F000000001F8000001F8000001F8000001F81A
:10030000000001F8000001F8000001F8000001F809
:10031000000001F8000001F8000001F8000000787A
:1003200000000018000000080000000000000000AD
:100330000000001800000078000001F8000001F83B
:10034000000001F8000001F8000001F8000001F8C9
:10035000000001F8000001F8000001F8000001F8B9
:10036000000001F8000001F8000001F8000001F8A9
:10037000000000F00000006000000000000000002D
:10038000000000000000000000000000000000006D
:10039000000000000000000000FFFE0001FFFF0061
:1003A00003FFFF8001FFFF6000FFFEF0000001F887
:1003B000000001F8000001F8000001F8000001F859
:1003C000000001F8000001F8000001F8000001F849
:1003D000000001F8000001F8000001F8000001F839
:1003E000000001F80000007801FFFE1803FFFF88FD
:1003F0000FFFFFE027FFFFC039FFFF003E000000B6
:100400003F0000003F0000003F0000003F000000F0
:100410003F0000003F0000003F0000003F000000E0
:100420003F0000003F0000003F0000003F000000D0
:100430003F0000003F0000001E0000000CFFFE0017
:1004400001FFFF0003FFFF8001FFFF0000FFFE0030
:10045000000000000000000000000000000000009C
:1004600000FFFE0001FFFF0003FFFF8001FFFF60B0
:1004700000FFFEF0000001F8000001F8000001F8A4
:10048000000001F8000001F8000001F8000001F888
:10049000000001F8000001F8000001F8000001F878
:1004A000000001F8000001F8000001F800000078E9
:1004B00001FFFE1803FFFF880FFFFFE007FFFFC0EB
:1004C00001FFFF1800000078000001F8000001F8AB
:1004D000000001F8000001F8000001F8000001F838
:1004E000000001F8000001F8000001F8000001F828
:1004F000000001F8000001F8000001F8000001F818
:10050000000000F000FFFE6001FFFF0003FFFF801E
:1005100001FFFF0000FFFE000000000000000000DF
:1005200000000000000000000000000000000000CB
:1005300000000000000000600C0000F01E0001F848
:100540003F0001F83F0001F83F0001F83F0001F8CB
:100550003F0001F83F0001F83F0001F83F0001F8BB
:100560003F0001F83F0001F83F0001F83F0001F8AB
:100570003F0001F83E00007839FFFE1823FFFF8896
:100580000FFFFFE007FFFFC001FFFF18000000782A
:10059000000001F8000001F8000001F8000001F877
:1005A000000001F8000001F8000001F8000001F867
:1005B000000001F8000001F8000001F8000001F857
:1005C000000001F8000001F8000000F000000060E9
:1005D000000000000000000000000000000000001B
:1005E000000000000000000000000000000000000B
:1005F00000FFFE0001FFFF0003FFFF8001FFFF007F
:100600000CFFFE001E0000003F0000003F00000045
:100610003F0000003F0000003F0000003F000000DE
:100620003F0000003F0000003F0000003F000000CE
:100630003F0000003F0000003F0000003E000000BF
:1006400039FFFE0023FFFF800FFFFFE007FFFFC021
:1006500001FFFF1800000078000001F8000001F819
:10066000000001F8000001F8000001F8000001F8A6
:10067000000001F8000001F8000001F8000001F896
:10068000000001F8000001F8000001F8000001F886
:10069000000000F000FFFE6001FFFF0003FFFF808D
:1006A00001FFFF0000FFFE0000000000000000004E
:1006B000000000000000000000FFFE0001FFFF003E
:1006C00003FFFF8001FFFF000CFFFE001E00000083
:1006D0003F0000003F0000003F0000003F0000001E
:1006E0003F0000003F0000003F0000003F0000000E
:1006F0003F0000003F0000003F0000003F000000FE
:100700003F0000003E00000039FFFE0023FFFF8095
:100710000FFFFFE027FFFFC039FFFF183E00007802
:100720003F0001F83F0001F83F0001F83F0001F8E9
:100730003F0001F83F0001F83F0001F83F0001F8D9
:100740003F0001F83F0001F83F0001F83F0001F8C9
:100750003F0001F83F0001F81E0000F00CFFFE60B2
:1007600001FFFF0003FFFF8001FFFF0000FFFE000D
:100770000000000000000000000000000000000079
:1007800000FFFE0001FFFF0003FFFF8001FFFF608D
:1007900000FFFEF0000001F8000001F8000001F881
:1007A000000001F8000001F8000001F8000001F865
:1007B000000001F8000001F8000001F8000001F855
:1007C000000001F8000001F8000001F800000078C6
:1007D00000000018000000080000000000000000F9
:1007E0000000001800000078000001F8000001F887
:1007F000000001F8000001F8000001F8000001F815
:10080000000001F8000001F8000001F8000001F804
:10081000000001F8000001F8000001F8000001F8F4
:10082000000000F000000060000000000000000078
:1008300000000000000000000000000000000000B8
:10084000000000000000000000FFFE0001FFFF00AC
:1008500003FFFF8001FFFF600CFFFEF01E0001F8A8
:100860003F0001F83F0001F83F0001F83F0001F8A8
:100870003F0001F83F0001F83F0001F83F0001F898
:100880003F0001F83F0001F83F0001F83F0001F888
:100890003F0001F83E00007839FFFE1823FFFF8873
:1008A0000FFFFFE027FFFFC039FFFF183E00007871
:1008B0003F0001F83F0001F83F0001F83F0001F858
:1008C0003F0001F83F0001F83F0001F83F0001F848
:1008D0003F0001F83F0001F83F0001F83F0001F838
:1008E0003F0001F83F0001F81E0000F00CFFFE6021
:1008F00001FFFF0003FFFF8001FFFF0000FFFE007C
:1009000000000000000000000000000000000000E7
:1009100000FFFE0001FFFF0003FFFF8001FFFF60FB
:100920000CFFFEF01E0001F83F0001F83F0001F847
:100930003F0001F83F0001F83F0001F83F0001F8D7
:100940003F0001F83F0001F83F0001F83F0001F8C7
:100950003F0001F83F0001F83F0001F83E00007839
:1009600039FFFE1823FFFF880FFFFFE007FFFFC0DE
:1009700001FFFF1800000078000001F8000001F8F6
:10098000000001F8000001F8000001F8000001F883
:10099000000001F8000001F8000001F8000001F873
:1009A000000001F8000001F8000001F8000001F863
:1009B000000000F000FFFE6001FFFF0003FFFF806A
:1009C00001FFFF0000FFFE0000000000000000002B
:1009D0000000000000000000000000000000000017
:1009E0000000000000000000000000000000000007
:1009F00000000000000000000000000000000000F7
:100A000000000000000000000000000000000000E6
:100A100000000000000000000000000000000000D6
:100A20000000000000000000FFFFFFFFFFFFFFFFCE
:100A3000FFFFFFFFFFFFFFFFFFFFFFFF00000000C2
:100A400000000000000000000000000000000000A6
:100A50000000000000000000000000000000000096
:100A600000000000FFFFFFFFFFFFFFFFFFFFFFFF92
:100A7000FFFFFFFFFFFFFFFFFFFFFFFFFFFFFFFF86
:100A80000000000000000000000000000000000066
:100A90000000000000000000000000000000000056
:100AA0009EF7FFFFFFFFFFFFFFFFFFFFFFFFFFFFBF
:100AB000FFFFFFFFFFFFFFFFFFFFFFFFFFFFFFFF46
:100AC000FFFF55AD00000000000000000000000026
:100AD0000000000000000000000000000000DFFF38
:100AE000FFFFFFFFFFFFFFFFFFFFFFFFFFFFFFFF16
:100AF000FFFFFFFFFFFFFFFFFFFFFFFFFFFFFFFF06
:100B0000FFFFFFFF9EF70000000000000000000054
:100B1000000000000000000000000000BEF7FFFF22
:100B2000FFFFFFFFFFFFFFFFFFFFFFFFFFFFFFFFD5
:100B3000FFFFFFFFFFFFFFFFFFFFFFFFFFFFFFFFC5
:100B4000FFFFFFFFFFFFBAD600000000000000001B
:100B5000000000000000000000007DEFDFFFFFFF4D
:100B6000FFFFFFFFFFFFFFFFFFFFFFFF7DEF86316E
:100B700024296529694A7DEFFFFFFFFFFFFFFFFF83
:100B8000FFFFFFFFFFFFFFFF00000000000000006D
:100B900000000000000000000000DFFFFFFFFFFF7B
:100BA000FFFFFFFFFFFFFFFFFFFFFFFF718CA6317D
:100BB00028428A528A52D39CFFFFFFFFFFFFFFFFAC
:100BC000FFFFFFFFFFFFFFFFDFFF0000000000004F
:100BD0000000000000000000BEF7DFFFDFFFDFFFC6
:100BE000DFFFDFFFFBDEDFFF9EF730840842695244
:100BF0000C636D736D732C6BD39C9EF7DFFF3CE72A
:100C0000DFFFDFFFDFFFDFFFDFFF55AD000000008C
:100C10000000000000000000DFFFDFFFDFFFDFFF5C
:100C2000DFFF34A504216529C739494ACB5A4D6BEA
:100C3000CF7B10841084CF7B4D6BCB5A494AC73988
:100C400075ADDFFFDFFFDFFFDFFFDFFF000000002C
:100C50000000000000000000DFFFDFFFDFFFDFFF1C
:100C60003CE7A631C739694AEB5A4D6B8E73CF7B8F
:100C7000EF7B10841084EF83CF7B8E734D6BEB5A28
:100C8000CB5A5DEFDFFFDFFFDFFFDFFF000000007B
:100C9000000000000000DFFFDFFFDFFFDFFFDFFFFE
:100CA00092946529494A2C63AE73EF7B1084D7BDBB
:100CB000FBDEFBDEB6B5AE7BAE7BCF7BEF7BAE73F0
:100CC0002C6355ADDFFFDFFFDFFFDFFF000000001B
:100CD000000000000000BEF7BEF7BEF7BEF7BEF78B
:100CE0009AD6E741AA528E731084308CFBDEBEF791
:100CF000BEF7BEF7BEF7DBDE6D6BCF7B10841084D2
:100D0000AE7BDBDEBEF7BEF7BEF7BEF7BEF7000078
:100D1000000000000000BEF7BEF7BEF7BEF7BEF74A
:100D2000BEF734A5CB5AAE73108455ADBEF7BEF7EF
:100D3000BEF7BEF7BEF7BEF792946D6BEF831084DB
:100D4000F7BDBEF7BEF7BEF7BEF7BEF7BEF70000B1
:100D5000000000000000BEF7BEF7BEF7BEF7BEF70A
:100D6000BEF7D7BDAA528E73EF83F7BDBEF7BEF7AD
:100D7000BEF7BEF7BEF7BEF714A50C63CF7BEF83BB
:100D800079CEBEF7BEF7BEF7BEF7BEF7BEF70000DE
:100D9000000000000000BEF7BEF7BEF7BEF7BEF7CA
:100DA000BEF714A58A528E73EF7B34A5BEF7BEF74B
:100DB000BEF7BEF7BEF7BEF71084CB5AAE73EF7B1B
:100DC000F7BDBEF7BEF7BEF7BEF7BEF79EF7000051
:100DD0000000000000009EF79EF79EF79EF79EF72A
:100DE0009AD6E739AA528E73EF83CF7BBAD69EF795
:100DF0009EF79EF79EF759CE494A0C63CF7BEF834F
:100E0000CF7BBAD69EF79EF79EF79EF79EF700001F
:100E10000000000000007DEF9EF79EF79EF79EF712
:100E20009294A631CB5AAE731084EF838E7334AD97
:100E300079CE59CE929428428A526D6BEF831084FA
:100E4000AE7355AD9EF79EF79EF79EF7000000002B
:100E500000000000000000009EF79EF79EF79EF73E
:100E60001CE72842AA5A8E7310841084CF7B4D6BE6
:100E7000CB5A69528A52CB5A4D6BCF7B1084108467
:100E8000EF7B3CE79EF79EF79EF79EF70000000081
:100E900000000000000000009EF79EF79EF79EF7FE
:100EA0009EF755AD494A2C63AE73EF7BCF7BAE7B8B
:100EB0008E736D736D738E73AE7BCF7BEF7BAE7372
:100EC000D7BD9EF79EF79EF79EF77DEF00000000CE
:100ED00000000000000000005DEF9EF79EF79EF707
:100EE0009EF79EF7DBDE5DEF3CE714A5AE73CF7B8C
:100EF000EF7B10841084108455AD5DEF7DEFFBDE39
:100F00009EF79EF79EF79EF79EF7000000000000F8
:100F1000000000000000000000007DEF9EF79EF73B
:100F20009EF79EF79EF79EF79EF79EF714A54D6BD2
:100F3000CF7B1084108496B59EF79EF79EF79EF7A0
:100F40009EF79EF79EF79EF77DEF000000000000E1
:100F50000000000000000000000000007DEF9EF790
:100F60009EF79EF79EF79EF79EF79EF71CE72C6B69
:100F70000C636D73EF7B3CE79EF79EF79EF79EF741
:100F80009EF79EF79EF79EF700000000000000000D
:100F900000000000000000000000000014A57DEF2C
:100FA0007DEF7DEF7DEF7DEF7DEF7DEF7DEF7DEFE1
:100FB0007DEF7DEF7DEF7DEF7DEF7DEF7DEF7DEFD1
:100FC0007DEF7DEF5DEF00000000000000000000FD
:100FD0000000000000000000000000000000AE73F0
:100FE0001CE75DEF5DEF5DEF3CE73CE71CE73CE7AE
:100FF0003CE73CE73CE73CE73CE73CE75DEF5DEF87
:101000005DEFFBDE000000000000000000000000BB
:101010000000000000000000000000000000610867
:10102000C31818C63CE73CE71CE7FBDEFBDEFBDE33
:10103000FBDEFBDEFBDEFBDE1CE71CE75DEF1CE7F7
:1010400075AD410800000000000000000000000035
:101050000000000000000000000000000000410847
:1010600061082000C73996B5BAD6FBDEFBDEFBDE91
:10107000FBDEFBDEFBDEFBDE1CE7BAD614A503219C
:101080002000000000000000000000000000000040
:1010900000000000000000000000000000006108E7
:1010A00041084108200041084108EB5A718CF39C2B
:1010B000B6B555AD14A5718C694A200020002000FA
:1010C0000000000000000000000000000000000020
:1010D0000000000000000000000000000000000010
:1010E00041082108410820004000200000000000C5
:1010F0000000000000002000200820002100200047
:1011000000000000000000000000000000000000DF
:1011100000000000000000000000000000000000CF
:10112000610841082000200020002000000000008D
:1011300000000000000000000000000000000000AF
:10114000000000000000000000000000000000009F
:10115000000000000000000000000000000000008F
:101160000000821061080000000000000000000084
:10117000000000000000000000000000000000006F
:10118000000000000000000000000000000000005F
:10119000000000000000000000000000000000004F
:1011A0000000000000000000021001080000000024
:1011B000000000000000000000000000000000002F
:1011C000000000000000000000000000000000001F
:1011D000000000000000000000000000000000000F
:1011E00000000000000000000000000000000000FF
:1011F00000000000000000000000000000000000EF
:1012000000000000000000000000000000000000DE
:1012100000000000000000000000000000000000CE
:101220000000000000000000FFFFFFFFFFFFFFFFC6
:10123000FFFFFFFFFFFFFFFFFFFFFFFF00000000BA
:10124000000000000000000000000000000000009E
:10125000000000000000000000000000000000008E
:1012600000000000FFFFFFFFFFFFFFFFFFFFFFFF8A
:10127000FFFFFFFFFFFFFFFFFFFFFFFFFFFFFFFF7E
:10128000000000000000000000000000000000005E
:10129000000000000000000000000000000000004E
:1012A0009EF7FFFFFFFFFFFFFFFFFFFFFFFFFFFFB7
:1012B000FFFFFFFFFFFFFFFFFFFFFFFFFFFFFFFF3E
:1012C000FFFF55AD0000000000000000000000001E
:1012D0000000000000000000000000000000DFFF30
:1012E000FFFFFFFFFFFFFFFFFFFFFFFFFFFFFFFF0E
:1012F000FFFFFFFFFFFFFFFFFFFFFFFFFFFFFFFFFE
:10130000FFFFFFFF9EF7000000000000000000004C
:10131000000000000000000000000000BEF7FFFF1A
:10132000FFFFFFFFFFFFFFFFFFFFFFFFFFFFFFFFCD
:10133000FFFFFFFFFFFFFFFFFFFFFFFFFFFFFFFFBD
:10134000FFFFFFFFFFFFBAD6000000000000000013
:10135000000000000000000000007DEFDFFFFFFF45
:10136000FFFFFFFFFFFFFFFFFFFFFFFFFFFF18C6AD
:10137000E7390C63FFFFFFFFFFFFFFFFFFFFFFFFEA
:10138000FFFFFFFFFFFFFFFF000000000000000065
:1013900000000000000000000000DFFFFFFFFFFF73
:1013A000FFFFFFFFFFFF5DEF9EF7FFFFFFFFB6B5FB
:1013B000E3180842FFFFFFFFFFFF59CE7DEFFFFF5D
:1013C000FFFFFFFFFFFFFFFFDFFF00000000000047
:1013D0000000000000000000BEF7DFFFDFFFDFFFBE
:1013E000DFFFDFFF7DEFE7414D6BDFFFDFFFB6B5CE
:1013F0002421494ADFFFDFFFFBDE652928425DEF3C
:10140000DFFFDFFFDFFFDFFFDFFF55AD0000000084
:101410000000000000000000DFFFDFFFDFFFDFFF54
:10142000DFFFDFFF2C63E3184529FBDEDFFFD7BDBD
:1014300065296952DFFFDFFFD7BD652924216D6B68
:10144000DFFFDFFFDFFFDFFFDFFFDFFF0000000068
:101450000000000000000000DFFFDFFFDFFFDFFF14
:10146000DFFF59CEE320242155ADDFFFDFFFD7BDDD
:1014700086318A52DFFFDFFFDFFF34A5652945296A
:1014800059CEDFFFDFFFDFFFDFFFDFFF00000000DF
:10149000000000000000DFFFDFFFDFFFDFFFDFFFF6
:1014A000DFFFAE7324218A52DFFFDFFFDFFFD7BDEE
:1014B000A631AA52DFFFDFFFDFFFDFFFAA5286312E
:1014C000CF7BDFFFDFFFDFFFDFFFDFFF000000007C
:1014D000000000000000BEF7BEF7BEF7BEF7BEF783
:1014E000BEF708424529F39CBEF7BEF7BEF7D7BD4D
:1014F00086318A52BEF7BEF7BEF7BEF7F39C86313F
:101500006952BEF7BEF7BEF7BEF7BEF7BEF70000E2
:10151000000000000000BEF7BEF7BEF7BEF7BEF742
:10152000BEF765296531D7BDBEF7BEF7BEF7D7BD9B
:101530008631694ABEF7BEF7BEF7BEF7F7BDA631E2
:10154000E739BEF7BEF7BEF7BEF7BEF7BEF700003D
:10155000000000000000BEF7BEF7BEF7BEF7BEF702
:10156000BEF765298631D7BDBEF7BEF7BEF7B6B563
:101570004529494ABEF7BEF7BEF7BEF7D7BDA6312B
:101580000842BEF7BEF7BEF7BEF7BEF7BEF70000D3
:10159000000000000000BEF7BEF7BEF7BEF7BEF7C2
:1015A000BEF7494A86317194BEF7BEF7BEF7BEF763
:1015B000BEF7BEF7BEF7BEF7BEF7BEF7518CA63139
:1015C000CB5ABEF7BEF7BEF7BEF7BEF79EF70000D8
:1015D0000000000000009EF79EF79EF79EF79EF722
:1015E0009EF710848631694A7DEF9EF79EF79EF73D
:1015F0009EF79EF79EF79EF79EF77DEF494AA6312C
:10160000718C9EF79EF79EF79EF79EF79EF700005F
:101610000000000000007DEF9EF79EF79EF79EF70A
:101620009EF7DBDE8631A63130849EF79EF79EF76B
:101630009EF79EF79EF79EF79EF71084A631C73956
:10164000DBDE9EF79EF79EF79EF79EF700000000F8
:1016500000000000000000009EF79EF79EF79EF736
:101660009EF79EF7518C8631A63110845DEF9EF770
:101670009EF79EF79EF75DEFEF7BA631A631929421
:101680009EF79EF79EF79EF79EF79EF700000000DC
:1016900000000000000000009EF79EF79EF79EF7F6
:1016A0009EF79EF79EF78E738631A63128421084EE
:1016B00014A514A5EF7BE741A631A631AE739EF7C2
:1016C0009EF79EF79EF79EF79EF77DEF00000000C5
:1016D00000000000000000005DEF9EF79EF79EF7FF
:1016E0009EF79EF79EF79EF7B294C739A631A639AA
:1016F000A631A631A631A631E739D39C9EF79EF7D5
:101700009EF79EF79EF79EF79EF7000000000000F0
:10171000000000000000000000007DEF9EF79EF733
:101720009EF79EF79EF79EF79EF71CE7B2942C63F8
:10173000CB5ACB5A2C63D39C1CE79EF79EF79EF79F
:101740009EF79EF79EF79EF77DEF000000000000D9
:101750000000000000000000000000007DEF9EF788
:101760009EF79EF79EF79EF79EF79EF79EF79EF7D1
:101770009EF79EF79EF79EF79EF79EF79EF79EF7C1
:101780009EF79EF79EF79EF7000000000000000005
:1017900000000000000000000000000014A57DEF24
:1017A0007DEF7DEF7DEF7DEF7DEF7DEF7DEF7DEFD9
:1017B0007DEF7DEF7DEF7DEF7DEF7DEF7DEF7DEFC9
:1017C0007DEF7DEF5DEF00000000000000000000F5
:1017D0000000000000000000000000000000AE73E8
:1017E0001CE75DEF5DEF5DEF3CE73CE71CE73CE7A6
:1017F0003CE73CE73CE73CE73CE73CE75DEF5DEF7F
:101800005DEFFBDE000000000000000000000000B3
:10181000000000000000000000000000000061085F
:10182000C31818C63CE73CE71CE7FBDEFBDEFBDE2B
:10183000FBDEFBDEFBDEFBDE1CE71CE75DEF1CE7EF
:1018400075AD41080000000000000000000000002D
:10185000000000000000000000000000000041083F
:1018600061082000C73996B5BAD6FBDEFBDEFBDE89
:10187000FBDEFBDEFBDEFBDE1CE7BAD614A5032194
:101880002000000000000000000000000000000038
:1018900000000000000000000000000000006108DF
:1018A00041084108200041084108EB5A718CF39C23
:1018B000B6B555AD14A5718C694A200020002000F2
:1018C0000000000000000000000000000000000018
:1018D0000000000000000000000000000000000008
:1018E00041082108410820004000200000000000BD
:1018F000000000000000200020082000210020003F
:1019000000000000000000000000000000000000D7
:1019100000000000000000000000000000000000C7
:101920006108410820002000200020000000000085
:1019300000000000000000000000000000000000A7
:101940000000000000000000000000000000000097
:101950000000000000000000000000000000000087
:10196000000082106108000000000000000000007C
:101970000000000000000000000000000000000067
:101980000000000000000000000000000000000057
:101990000000000000000000000000000000000047
:1019A000000000000000000002100108000000001C
:1019B0000000000000000000000000000000000027
:1019C0000000000000000000000000000000000017
:1019D0000000000000000000000000000000000007
:1019E00000000000000000000000000000000000F7
:1019F00000000000000000000000000000000000E7
:101A000000000000000000000000000000000000D6
:101A100000000000000000000000000000000000C6
:101A2000000000000000FFFFFFFFFFFFFFFFFFFFC0
:101A3000FFFFFFFFFFFFFFFFFFFF000000000000B0
:101A40000000000000000000000000000000000096
:101A50000000000000000000000000000000000086
:101A60000000FFFFFFFFFFFFFFFFFFFFFFFFFFFF84
:101A7000FFFFFFFFFFFFFFFFFFFFFFFFFFFF000074
:101A80000000000000000000000000000000000056
:101A900000000000000000000000000000009EF7B1
:101AA000FFFFFFFFFFFFFFFFFFFFFFFFFFFFFFFF46
:101AB000FFFFFFFFFFFFFFFFFFFFFFFFFFFFFFFF36
:101AC00055AD000000000000000000000000000014
:101AD000000000000000000000000000DFFFFFFF2A
:101AE000FFFFFFFFFFFFFFFFFFFFFFFFFFFFFFFF06
:101AF000FFFFFFFFFFFFFFFFFFFFFFFFFFFFFFFFF6
:101B0000FFFF9EF700000000000000000000000042
:101B100000000000000000000000BEF7FFFFFFFF14
:101B2000FFFFFFFFFFFFFFFFFFFFFFFFFFFFFFFFC5
:101B3000FFFFFFFFFFFFFFFFFFFFFFFFFFFFFFFFB5
:101B4000FFFFFFFFBAD60000000000000000000009
:101B500000000000000000007DEFDFFFFFFFFFFF3F
:101B6000FFFFFFFFFFFFFFFFFFFFFFFFFFFFFFFF85
:101B7000FFFFFFFFFFFFFFFFFFFFFFFFFFFFFFFF75
:101B8000FFFFFFFFFFFF000000000000000000005B
:101B90000000000000000000DFFFFFFFFFFFFFFF6D
:101BA000FFFFFFFFFFFFFFFFFFFFFFFFFFFFFFFF45
:101BB000FFFFFFFFFFFFFFFFFFFFFFFFFFFFFFFF35
:101BC000FFFFFFFFFFFFDFFF00000000000000003D
:101BD000000000000000BEF7DFFFDFFFDFFFDFFFD8
:101BE000DFFFDFFFDFFFDFFFDFFFDFFFDFFFDFFF05
:101BF000DFFFDFFFDFFFDFFFDFFFDFFFDFFFDFFFF5
:101C0000DFFFDFFFDFFFDFFF55AD0000000000005A
:101C1000000000000000DFFFDFFFDFFFDFFFDFFF6E
:101C2000DFFFDFFFDFFFDFFFDFFFDFFFDFFFDFFFC4
:101C3000F7BD3084DFFFDFFFDFFFDFFFDFFFDFFF08
:101C4000DFFFDFFFDFFFDFFFDFFF0000000000003E
:101C5000000000000000DFFFDFFFDFFFDFFFDFFF2E
:101C6000DFFFDFFFDFFFDFFFDFFFDFFFDFFFDFFF84
:101C700018C624212C637DEFDFFFDFFFDFFFDFFFCE
:101C8000DFFFDFFFDFFFDFFFDFFF000000000000FE
:101C900000000000DFFFDFFFDFFFDFFFDFFFDFFF10
:101CA0001CE7B294D39CF39C14A514A579CE79CEED
:101CB00014A5E7392842CB5ADBDEDFFFDFFFDFFF69
:101CC000DFFFDFFFDFFFDFFFDFFF000000000000BE
:101CD00000000000BEF7BEF7BEF7BEF7BEF7BEF7C6
:101CE000F7BD04218631E7392842494A284A494A42
:101CF0008A52EB5A0C630C63CB5AD7BDBEF7BEF7C2
:101D0000BEF7BEF7BEF7BEF7BEF7BEF70000000095
:101D100000000000BEF7BEF7BEF7BEF7BEF7BEF785
:101D2000B6BD8631494ACB5A2C6B4D6B4D6B6D6BF2
:101D30008E73CF7BEF83CF7B8E73EB5AB29CBEF753
:101D4000BEF7BEF7BEF7BEF7BEF7BEF70000000055
:101D500000000000BEF7BEF7BEF7BEF7BEF7BEF745
:101D600096B5C739CB5A6D73EF8330843084308495
:101D7000308C518C7194718C10848E73CB5A718C11
:101D8000BEF7BEF7BEF7BEF7BEF7BEF70000000015
:101D900000000000BEF7BEF7BEF7BEF7BEF7BEF705
:101DA00096B5E739EB5A8E731084518C518C518C57
:101DB0007194929492949294518CCF7B14A59EF737
:101DC000BEF7BEF7BEF7BEF7BEF79EF700000000F5
:101DD000000000009EF79EF79EF79EF79EF79EF785
:101DE000B6B5CB5A8E738E73AE73EF7BEF7B1084D8
:101DF0003084518C718C518C518C79CE9EF79EF72A
:101E00009EF79EF79EF79EF79EF79EF70000000054
:101E1000000000007DEF9EF79EF79EF79EF79EF76D
:101E20009EF79EF79EF79EF79EF79EF79EF79EF70A
:101E3000D7BDAE73CF7BD39C3CE79EF79EF79EF752
:101E40009EF79EF79EF79EF79EF7000000000000A9
:101E50000000000000009EF79EF79EF79EF79EF799
:101E60009EF79EF79EF79EF79EF79EF79EF79EF7CA
:101E700034A5EB5A96B59EF79EF79EF79EF79EF710
:101E80009EF79EF79EF79EF79EF700000000000069
:101E90000000000000009EF79EF79EF79EF79EF759
:101EA0009EF79EF79EF79EF79EF79EF79EF79EF78A
:101EB00096B579CE9EF79EF79EF79EF79EF79EF712
:101EC0009EF79EF79EF79EF77DEF00000000000052
:101ED0000000000000005DEF9EF79EF79EF79EF762
:101EE0009EF79EF79EF79EF79EF79EF79EF79EF74A
:101EF0009EF79EF79EF79EF79EF79EF79EF79EF73A
:101F00009EF79EF79EF79EF700000000000000007D
:101F100000000000000000007DEF9EF79EF79EF796
:101F20009EF79EF79EF79EF79EF79EF79EF79EF709
:101F30009EF79EF79EF79EF79EF79EF79EF79EF7F9
:101F40009EF79EF79EF77DEF000000000000000066
:101F5000000000000000000000007DEF9EF79EF7EB
:101F60009EF79EF79EF79EF79EF79EF79EF79EF7C9
:101F70009EF79EF79EF79EF79EF79EF79EF79EF7B9
:101F80009EF79EF79EF70000000000000000000092
:101F90000000000000000000000014A57DEF7DEFB0
:101FA0007DEF7DEF7DEF7DEF7DEF7DEF7DEF7DEFD1
:101FB0007DEF7DEF7DEF7DEF7DEF7DEF7DEF7DEFC1
:101FC0007DEF5DEF00000000000000000000000059
:101FD000000000000000000000000000AE731CE7DD
:101FE0005DEF5DEF5DEF3CE73CE71CE73CE73CE77E
:101FF0003CE73CE73CE73CE73CE75DEF5DEF5DEF4E
:10200000FBDE0000000000000000000000000000F7
:102010000000000000000000000000006108C3187C
:1020200018C63CE73CE71CE7FBDEFBDEFBDEFBDE25
:10203000FBDEFBDEFBDE1CE71CE75DEF1CE775AD9E
:102040004108000000000000000000000000000047
:1020500000000000000000000000000041086108CE
:102060002000C73996B5BAD6FBDEFBDEFBDEFBDE11
:10207000FBDEFBDEFBDE1CE7BAD614A50321200045
:102080000000000000000000000000000000000050
:10209000000000000000000000000000610841088E
:1020A0004108200041084108EB5A718CF39CB6B5F9
:1020B00055AD14A5718C694A200020002000000055
:1020C0000000000000000000000000000000000010
:1020D00000000000000000000000000000004108B7
:1020E00021084108200040002000000000000000FE
:1020F0000000000020002008200021002000000037
:1021000000000000000000000000000000000000CF
:102110000000000000000000000000000000610856
:1021200041082000200020002000000000000000E6
:10213000000000000000000000000000000000009F
:10214000000000000000000000000000000000008F
:10215000000000000000000000000000000000007F
:102160008210610800000000000000000000000074
:10217000000000000000000000000000000000005F
:10218000000000000000000000000000000000004F
:10219000000000000000000000000000000000003F
:1021A0000000000000000210010800000000000014
:1021B000000000000000000000000000000000001F
:1021C000000000000000000000000000000000000F
:1021D00000000000000000000000000000000000FF
:1021E00000000000000000000000000000000000EF
:1021F00000000000000000000000000000000000DF
:1022000000000000000000000000000000000000CE
:1022100000000000000000000000000000000000BE
:10222000000000000000FFFFFFFFFFFFFFFFFFFFB8
:10223000FFFFFFFFFFFFFFFFFFFF000000000000A8
:10224000000000000000000000000000000000008E
:10225000000000000000000000000000000000007E
:102260000000FFFFFFFFFFFFFFFFFFFFFFFFFFFF7C
:10227000FFFFFFFFFFFFFFFFFFFFFFFFFFFF00006C
:10228000000000000000000000000000000000004E
:1022900000000000000000000000000000009EF7A9
:1022A000FFFFFFFFFFFFFFFFFFFFFFFFFFFFFFFF3E
:1022B000FFFFFFFFFFFFFFFFFFFFFFFFFFFFFFFF2E
:1022C00055AD00000000000000000000000000000C
:1022D000000000000000000000000000DFFFFFFF22
:1022E000FFFFFFFFFFFFFFFFFFFFFFFFFFFFFFFFFE
:1022F000FFFFFFFFFFFFFFFFFFFFFFFFFFFFFFFFEE
:10230000FFFF9EF70000000000000000000000003A
:1023100000000000000000000000BEF7FFFFFFFF0C
:10232000FFFFFFFFFFFFFFFFFFFFFFFFFFFFFFFFBD
:10233000FFFFFFFFFFFFFFFFFFFFFFFFFFFFFFFFAD
:10234000FFFFFFFFBAD60000000000000000000001
:1023500000000000000000007DEFDFFFFFFFFFFF37
:10236000FFFFFFFFFFFFFFFFFFFFFFFFFFFFFFFF7D
:10237000FFFFFFFFFFFFFFFFFFFFFFFFFFFFFFFF6D
:10238000FFFFFFFFFFFF0000000000000000000053
:102390000000000000000000DFFFFFFFFFFFFFFF65
:1023A000FFFFFFFFFFFFFFFFFFFFFFFFFFFFFFFF3D
:1023B000FFFFFFFFFFFFFFFFFFFFFFFFFFFFFFFF2D
:1023C000FFFFFFFFFFFFDFFF000000000000000035
:1023D000000000000000BEF7DFFFDFFFDFFFDFFFD0
:1023E000DFFFDFFFDFFFDFFFDFFFDFFFDFFFDFFFFD
:1023F000DFFFDFFFDFFFDFFFDFFFDFFFDFFFDFFFED
:10240000DFFFDFFFDFFFDFFF55AD00000000000052
:10241000000000000000DFFFDFFFDFFFDFFFDFFF66
:10242000DFFFDFFFDFFFDFFFDFFF3CE7AA52DFFF59
:10243000DFFFDFFFDFFFDFFFDFFFDFFFDFFFDFFFAC
:10244000DFFFDFFFDFFFDFFFDFFF00000000000036
:10245000000000000000DFFFDFFFDFFFDFFFDFFF26
:10246000DFFFDFFFDFFFDFFFD7BDC7396531DFFFEC
:10247000DFFFDFFFDFFFDFFFDFFFDFFFDFFFDFFF6C
:10248000DFFFDFFFDFFFDFFFDFFF000000000000F6
:1024900000000000DFFFDFFFDFFFDFFFDFFFDFFF08
:1024A000DFFFDFFF9EF710848631E74169529AD63D
:1024B0009AD679CE79CE59CEBAD6DFFFDFFFDFFFCD
:1024C000DFFFDFFFDFFFDFFFDFFF000000000000B6
:1024D00000000000BEF7BEF7BEF7BEF7BEF7BEF7BE
:1024E000BEF79AD6694AC739694AEB5A2C632C63FE
:1024F000CB5A694A28420842E741C7392842BEF709
:10250000BEF7BEF7BEF7BEF7BEF7BEF7000000008D
:1025100000000000BEF7BEF7BEF7BEF7BEF7BEF77D
:10252000D39C6529C7398A524D6BCF7BEF83EF83EC
:10253000AE7B6D734D6B2C632C63EB5A4D6BBEF70A
:10254000BEF7BEF7BEF7BEF7BEF7BEF7000000004D
:1025500000000000BEF7BEF7BEF7BEF7BEF71CE7EF
:10256000C7398631694A2C6BEF7B518C7194719419
:10257000518C308C10841084EF83AE73CF7BBEF708
:10258000BEF7BEF7BEF7BEF7BEF7BEF7000000000D
:1025900000000000BEF7BEF7BEF7BEF7BEF7BEF7FD
:1025A0005DEF6D738A526D6B108471949294929466
:1025B0007194718C518C518C518CEF833084BEF7A7
:1025C000BEF7BEF7BEF7BEF7BEF79EF700000000ED
:1025D000000000009EF79EF79EF79EF79EF79EF77D
:1025E0009EF79EF7F39C0C63CF7B308C718C518CE3
:1025F000308C10841084EF83EF83AE7330849EF7A9
:102600009EF79EF79EF79EF79EF79EF7000000004C
:10261000000000007DEF9EF79EF79EF79EF79EF765
:102620009EF79EF79EF718C64D6B8E73718C9EF7C2
:102630009EF79EF7DBDEBAD6BAD69AD6BAD69EF702
:102640009EF79EF79EF79EF79EF7000000000000A1
:102650000000000000009EF79EF79EF79EF79EF791
:102660009EF79EF79EF79EF7DBDE8E73EF839EF755
:102670009EF79EF79EF79EF79EF79EF79EF79EF7B2
:102680009EF79EF79EF79EF79EF700000000000061
:102690000000000000009EF79EF79EF79EF79EF751
:1026A0009EF79EF79EF79EF79EF75DEF14A59EF7A7
:1026B0009EF79EF79EF79EF79EF79EF79EF79EF772
:1026C0009EF79EF79EF79EF77DEF0000000000004A
:1026D0000000000000005DEF9EF79EF79EF79EF75A
:1026E0009EF79EF79EF79EF79EF79EF79EF79EF742
:1026F0009EF79EF79EF79EF79EF79EF79EF79EF732
:102700009EF79EF79EF79EF7000000000000000075
:1027100000000000000000007DEF9EF79EF79EF78E
:102720009EF79EF79EF79EF79EF79EF79EF79EF701
:102730009EF79EF79EF79EF79EF79EF79EF79EF7F1
:102740009EF79EF79EF77DEF00000000000000005E
:10275000000000000000000000007DEF9EF79EF7E3
:102760009EF79EF79EF79EF79EF79EF79EF79EF7C1
:102770009EF79EF79EF79EF79EF79EF79EF79EF7B1
:102780009EF79EF79EF7000000000000000000008A
:102790000000000000000000000014A57DEF7DEFA8
:1027A0007DEF7DEF7DEF7DEF7DEF7DEF7DEF7DEFC9
:1027B0007DEF7DEF7DEF7DEF7DEF7DEF7DEF7DEFB9
:1027C0007DEF5DEF00000000000000000000000051
:1027D000000000000000000000000000AE731CE7D5
:1027E0005DEF5DEF5DEF3CE73CE71CE73CE73CE776
:1027F0003CE73CE73CE73CE73CE75DEF5DEF5DEF46
:10280000FBDE0000000000000000000000000000EF
:102810000000000000000000000000006108C31874
:1028200018C63CE73CE71CE7FBDEFBDEFBDEFBDE1D
:10283000FBDEFBDEFBDE1CE71CE75DEF1CE775AD96
:10284000410800000000000000000000000000003F
:1028500000000000000000000000000041086108C6
:102860002000C73996B5BAD6FBDEFBDEFBDEFBDE09
:10287000FBDEFBDEFBDE1CE7BAD614A5032120003D
:102880000000000000000000000000000000000048
:102890000000000000000000000000006108410886
:1028A0004108200041084108EB5A718CF39CB6B5F1
:1028B00055AD14A5718C694A20002000200000004D
:1028C0000000000000000000000000000000000008
:1028D00000000000000000000000000000004108AF
:1028E00021084108200040002000000000000000F6
:1028F000000000002000200820002100200000002F
:1029000000000000000000000000000000000000C7
:10291000000000000000000000000000000061084E
:1029200041082000200020002000000000000000DE
:102930000000000000000000000000000000000097
:102940000000000000000000000000000000000087
:102950000000000000000000000000000000000077
:10296000821061080000000000000000000000006C
:102970000000000000000000000000000000000057
:102980000000000000000000000000000000000047
:102990000000000000000000000000000000000037
:1029A000000000000000021001080000000000000C
:1029B0000000000000000000000000000000000017
:1029C0000000000000000000000000000000000007
:1029D0001010205F00000000000000000000000058
:1029E00000000000000000000000000000000000E7
:1029F00000000000000000000300030003000300CB
:102A000003000300030003000300000003000300B1
:102A1000000000000000000006600660066006601E
:102A200000000000000000000000000000000000A6
:102A300000000000000000000360036006C03FF0DB
:102A40003FF006C00D803FF03FF00D801B001B00E3
:102A50000000000000000100038007C00D600D00B1
:102A60000F00078003C001E00D600D6007C0038008
:102A700001000000000000003C186630663066600F
:102A800066C03CC0019E01B30333033306330C1E02
:102A9000000000000000000007C00FE00C600C60A8
:102AA00007C007800D9019D818F018780FFC078818
:102AB0000000000000000000018001800180018012
:102AC0000000000000000000000000000000000006
:102AD0000000000000000180030003000600060063
:102AE0000600060006000600060003000300018041
:102AF00000000000000006000300030001800180C8
:102B00000180018001800180018003000300060034
:102B100000000000000000000000000003800380AF
:102B200033983FF807C007C00EE01C700440000057
:102B3000000000000000000000000000000000C0D5
:102B400000C000C007F807F800C000C000C00000C7
:102B50000000000000000000000000000000000075
:102B6000000000000000000003000300010001005D
:102B70000200000000000000000000000000000053
:102B80000000000003E003E000000000000000007F
:102B90000000000000000000000000000000000035
:102BA000000000000000000000000300030000001F
:102BB00000000000000000000060006000C000C0D5
:102BC00000C000C00180018001800180030003007B
:102BD000000000000000000003C007E00E700C3091
:102BE0000C300C300C300C300C300E7007E003C091
:102BF00000000000000000000180038007800D80BD
:102C000009800180018001800180018001800180B4
:102C1000000000000000000003C007E00E300C3090
:102C20000030006000E001C0038006000FF00FF0EC
:102C3000000000000000000003E007F00E3000304C
:102C400001E001E0007000300C300E7007E003C0BE
:102C50000000000000000000006000E000E001E073
:102C60000360036006600C600FF00FF0006000600E
:102C7000000000000000000007E007E006000C0074
:102C80000FC00FE00C7000300C300E7007E003C076
:102C9000000000000000000003E007F006300C0018
:102CA0000DC00FE00E700C300C30063007E003C092
:102CB00000000000000000000FF00FF0006000C0F6
:102CC00000C0018001800180038003000300030035
:102CD000000000000000000003C007E00C300C30D2
:102CE0000C3007E007E00C300C300C3007E003C07C
:102CF000000000000000000003C007E00C600C3082
:102D00000C300E7007F003B000300C600FE007C00D
:102D100000000000000000000000018001800000B1
:102D200000000000000000000180018000000000A1
:102D30000000000000000000000001800180000091
:102D40000000000000000000018001800080008081
:102D5000010000000000000000000000002000E072
:102D600003C00F001C000F0003C000E000200000A3
:102D70000000000000000000000000001FF01FF035
:102D8000000000001FF01FF0000000000000000025
:102D900000000000000000000000000008000E001D
:102DA000078001E0007001E007800E0008000000CD
:102DB000000000000000000003C007E00E300C30EF
:102DC000007000E001C001800180000001800180EE
:102DD00000000000000007C00C30137817E82CC872
:102DE0002CC82CC82FD026E01008081007E00000DF
:102DF00000000000000000000380038006C006C041
:102E000006C00C600C600FE01FF01830183030184E
:102E100000000000000000001FE01FF01830183014
:102E200018301FE01FF01818181818181FF01FE0AE
:102E3000000000000000000003E00FF00C381C1040
:102E400018001800180018001C100C380FF003E0D0
:102E500000000000000000001FC01FF0183018180C
:102E60001818181818181818181818301FF01FC03C
:102E700000000000000000000FF80FF80C000C002C
:102E80000C000FF80FF80C000C000C000FF80FF8F6
:102E900000000000000000000FF00FF00C000C001C
:102EA0000C000FE00FE00C000C000C000C000C00FC
:102EB000000000000000000007E01FF01838381084
:102EC0003000300030F830F8381818381FF807E0B4
:102ED0000000000000000000181818181818181832
:102EE00018181FF81FF81818181818181818181894
:102EF00000000000000000000180018001800180CE
:102F000001800180018001800180018001800180B9
:102F100000000000000000000030003000300030F1
:102F200000300030003000300C300E7007E003C07D
:102F3000000000000000000018181830186018C0C9
:102F400019801BC01EC01C60187018301818181883
:102F500000000000000000000C000C000C000C0041
:102F60000C000C000C000C000C000C000FF00FF01B
:102F70000000000000000000383838383C783C7809
:102F8000345836D836D836D83398339833983118E1
:102F9000000000000000000018181C181E181E1861
:102FA0001B181998199818D81878187818381818FC
:102FB000000000000000000007C01FF018303018AB
:102FC0003018301830183018301818301FF007C07B
:102FD00000000000000000000FE00FF00C380C189B
:102FE0000C380FF00FE00C000C000C000C000C0073
:102FF000000000000000000007C01FF0183030186B
:10300000301830183018301831B818F01FF007B0E9
:1030100000180000000000001FE01FF0183818180A
:1030200018381FF01FC018E0187018301838181C16
:10303000000000000000000003E007F00E380C184C
:103040000F0007E001F000380C180E3807F003E01D
:1030500000000000000000001FF81FF80180018040
:103060000180018001800180018001800180018058
:103070000000000000000000181818181818181890
:10308000181818181818181818181C380FF007E016
:103090000000000000000000301818301830183010
:1030A0000C600C600EE006C006C003800380038045
:1030B000000000000000000031C631C631C61B6CA4
:1030C0001B6C1B6C1B6C1B6C0E380E380E380E38CC
:1030D000000000000000000018301C700C6006C0EA
:1030E00007C00380038007C006C00C601C70183046
:1030F000000000000000000018181C380C300660AA
:10310000066003C001800180018001800180018090
:10311000000000000000000007F807F80030006021
:1031200000E000C001800380030006000FF80FF8E4
:1031300000000000000003C003C003000300030000
:10314000030003000300030003000300030003C0A7
:1031500003C00000000000000300030001800180A4
:103160000180018000C000C000C000C0006000609D
:1031700000000000000003C003C000C000C000C089
:1031800000C000C000C000C000C000C000C003C03C
:1031900003C000000000018003C003C00660066099
:1031A00006600C300000000000000000000000007D
:1031B000000000000000000000000000000000000F
:1031C0000000000000000000000000000000FFFF01
:1031D000FFFF000000000000018000C000000000B0
:1031E00000000000000000000000000000000000DF
:1031F00000000000000000000000000007C00FE019
:103200000C6001E007E00E600C600FE007B000000A
:103210000000000000000C000C000C000DC00FE0CE
:103220000E700C300C300C300E700FE00DC0000032
:1032300000000000000000000000000003C007E0E4
:103240000E600C000C000C000E6007E003C00000D4
:1032500000000000000000300030003003B007F034
:103260000E700C300C300C300E7007F003B0000004
:10327000000000000000000000000000038007C004
:103280000C600FE00FE00C000E6007C00380000030
:1032900000000000000003C007C006000F800F8080
:1032A00006000600060006000600060006000000F4
:1032B0000000000000000000000007600FE01CE0BC
:1032C0001860186018601CE00FE0076018601FE0CD
:1032D0000FC0000000000C000C000C000DE00FF00F
:1032E0000E300C300C300C300C300C300C30000038
:1032F000000000000000000001800180000001804B
:103300000180018001800180018001800180000036
:10331000000000000000000001800180000001802A
:103320000180018001800180018001800180018095
:103330000780070000000C000C000C000C600CC0A3
:103340000D800F800FC00EC00CC00C600C60000020
:1033500000000000000001800180018001800180E8
:1033600001800180018001800180018001800000D6
:1033700000000000000000000000000037383FFCA3
:1033800039CC318C318C318C318C318C318C0000CA
:103390000000000000000000000000000DE00FF041
:1033A0000E300C300C300C300C300C300C30000077
:1033B00000000000000000000000000003C007E063
:1033C0000E700C300C300C300E7007E003C00000A3
:1033D0000000000000000000000000000DC00FE031
:1033E0000E700C300C300C300E700FE00DC00C0065
:1033F0000C000C00000000000000000003B007F00B
:103400000E700C300C300C300E7007F003B0003032
:10341000003000300000000000000000037003F0E6
:103420000380030003000300030003000300000007
:1034300000000000000000000000000007C00FE0D6
:103440000C600F0007C000E00C600FE007C0000038
:1034500000000000000001000300030007C007C0D7
:103460000300030003000300030003C001C00000C9
:103470000000000000000000000000000C300C30D4
:103480000C300C300C300C300C700FF007B000001A
:1034900000000000000000000000000006300630C0
:1034A000063003600360036001C001C001C000007A
:1034B00000000000000000000000000031C631C61E
:1034C00019CC1B6C1B6C1B6C0E380E380E380000B0
:1034D000000000000000000000000000063007703F
:1034E000036001C001C001C0036007700630000026
:1034F0000000000000000000000000000C180C1884
:10350000063006300360036003E001C001C00180A3
:1035100007800700000000000000000003F803F827
:103520000030007000E001C0018003F803F80000E3
:103530000000000001C003C00300030003000300FB
:103540000E000E000300030003000300030003C08D
:1035500001C00000018001800180018001800180A4
:103560000180018001800180018001800180018053
:1035700001800180038003C000C000C000C000C003
:103580000070007000C000C000C000C000C003C0D8
:10359000038000000000000007880FF808F000001A
:1035A000000000000000000000000000000000001B
:1035B00000000000080C205F000000000000000078
:1035C000000000000000202020202020002000001B
:1035D00000285050000000000000000000002828D3
:1035E000FC2850FC50500000002078A8A060302833
:1035F000A8F02000000048A8B0502834544800002B
:10360000000020505078A8A8906C00000040408036
:10361000000000000000000000040810101010104E
:10362000100804000040201010101010102040005E
:1036300000000020A87070A82000000000002020DA
:1036400020F8202020000000000000000000000002
:10365000004040800000000000F800000000000072
:1036600000000000000000000040000000081010F2
:1036700010202040404080000000708888888888A2
:1036800088700000000020602020202020700000B2
:10369000000070888810204080F8000000007088CA
:1036A00008300808887000000000103050509078F2
:1036B000101800000000F88080F0080888700000F2
:1036C0000000709080F08888887000000000F890FA
:1036D000102020202020000000007088887088883A
:1036E00088700000000070888888780848700000A2
:1036F000000000002000000000200000000000008A
:1037000000200000002020000004081020402010AD
:103710000804000000000000F80000F800000000AD
:1037200000402010080408102040000000007088AD
:1037300088102020002000000000708898A8A8B8F9
:1037400080780000000020203050507848CC0000E5
:103750000000F0484870484848F0000000007888B1
:1037600080808080887000000000F0484848484809
:1037700048F000000000F8485070504048F8000041
:103780000000F8485070504040E000000000384809
:1037900080809C88483000000000CC484878484829
:1037A00048CC00000000F8202020202020F8000055
:1037B00000007C10101010101090E0000000EC4889
:1037C0005060505048EC00000000E0404040404055
:1037D00044FC00000000D8D8D8D8A8A8A8A80000A9
:1037E0000000DC486868585848E80000000070880D
:1037F00088888888887000000000F0484870404041
:1038000040E0000000007088888888E89870180000
:103810000000F0484870504848EC000000007888EC
:103820008060100888F000000000F8A82020202008
:10383000207000000000CC4848484848483000004C
:103840000000CC4848505030202000000000A8A8BC
:10385000A8705050505000000000D8505020205008
:1038600050D800000000D8505020202020700000C8
:103870000000F8901020204048F800000038202078
:103880002020202020203800004040402020101020
:1038900010080000007010101010101010107000B0
:1038A00000205000000000000000000000000000A8
:1038B00000000000000000FC0020000000000000EC
:1038C000000000000000000000304838483C0000C4
:1038D0000000C040407048484870000000000000F0
:1038E00000384840403800000000180808384848B0
:1038F000483C0000000000000030487840380000DC
:1039000000001C202078202020780000000000000B
:10391000003C4830407844380000C040407048487F
:1039200048EC000000002000006020202070000013
:103930000000100000301010101010E00000C04017
:10394000405C507048EC00000000E0202020202067
:1039500020F800000000000000F0A8A8A8A80000BF
:103960000000000000F0484848EC000000000000A3
:1039700000304848483000000000000000F048488F
:10398000487040E000000000003848484838081CF3
:103990000000000000D8604040E00000000000008F
:1039A00000784030087800000000002020702020BF
:1039B000201800000000000000D84848483C0000E3
:1039C0000000000000EC4850302000000000000023
:1039D00000A8A870505000000000000000D850203F
:1039E00050D800000000000000EC4850302020C0FB
:1039F000000000000078102020780000001810104F
:103A000010201010101018001010101010101010AE
:103A100010101010006020202010202020206000B6
:103A200040A4180000000000000000001010205FFB
:103A30000000000000000000000000000000000086
:103A40000000000000000000000000000000000076
:103A50000000000007000F800F800F800F800F8094
:103A60000700070000000000070007000700000033
:103A700000000E380E380E380E38063000000000F8
:103A80000000000000000000000000000000000036
:103A900000000C300C300C307FFE7FFE0C300C3000
:103AA0000C300C307FFE7FFE0C300C300C300000F0
:103AB0000000024002400FF81FF81A401A401FF0A1
:103AC0000FF8025802581FF81FF002400240000091
:103AD0000000000000000E100E300E7000E001C06B
:103AE000038007000E700C700870000000000000DA
:103AF000000000000F001980198019800F000F08C6
:103B00000F9819F818F018E019F00F98000000004D
:103B1000000000000700070007000E000000000082
:103B20000000000000000000000000000000000095
:103B30000000000000F001C0038007000E000E002E
:103B40000E000E000700038001C000F0000000001E
:103B5000000000000F00038001C000E00070007052
:103B60000070007000E001C003800F000000000042
:103B70000000000001801188099007E007E03FFC89
:103B80003FFC07E007E00990118801800000000079
:103B900000000000000000000180018001800FF0A3
:103BA0000FF0018001800180000000000000000093
:103BB0000000000000000000000000000000000005
:103BC0000000000000000700070007000E000000D2
:103BD00000000000000000000000000000001FF8CE
:103BE0001FF80000000000000000000000000000BE
:103BF00000000000000000000000000000000000C5
:103C0000000000000000070007000700000000009F
:103C10000000000000020006000E001C00380070CA
:103C200000E001C0038007000E001C00000000003F
:103C3000000000000FF01C381C781CF81CF81DB8A0
:103C40001DB81F381F381E381C380FF00000000048
:103C5000000000000180018003801F801F8003801E
:103C6000038003800380038003801FF000000000B6
:103C7000000000000FE01C701C380038007000E0ED
:103C800001C0038007000E381C381FF80000000038
:103C9000000000000FE01C701C380038007003C0EA
:103CA00003C0007000381C381C700FE000000000DA
:103CB0000000000000E001E003E006E00CE018E096
:103CC0001FF81FF800E000E000E003F8000000002B
:103CD000000000001FF81C001C001C001C001FE05E
:103CE0001FF0007800381C381C700FE00000000046
:103CF0000000000003E007000E001C001C001FF085
:103D00001FF81C381C381C381C380FF0000000004D
:103D1000000000001FFC1C1C1C1C1C1C001C00388C
:103D2000007000E001C003800380038000000000F9
:103D3000000000000FF01C381C381C381F3807E04A
:103D400007E01CF81C381C381C380FF0000000007D
:103D5000000000000FF01C381C381C381C381FF8FD
:103D60000FF800380038007000E007C000000000C5
:103D700000000000000000000380038003800000BA
:103D800000000380038003800000000000000000AA
:103D9000000000000000000003800380038000009A
:103DA0000000038003800380070000000000000083
:103DB0000000007000E001C0038007000E001C003E
:103DC0001C000E000700038001C000E0007000002E
:103DD000000000000000000000003FFC3FFC00006D
:103DE00000003FFC3FFC000000000000000000005D
:103DF00000001C000E000700038001C000E00070FE
:103E0000007000E001C0038007000E001C000000ED
:103E1000000003C00FF01E7818380038007000E072
:103E200001C001C00000000001C001C001C00000CD
:103E300000000FF81C1C1C1C1C1C1C1C1CFC1CFC6B
:103E40001CFC1CFC1C001C001C001FF007F80000E0
:103E50000000000003C007E00E701C381C381C383E
:103E60001C381FF81C381C381C381C380000000097
:103E7000000000001FF00E380E380E380E380FF01C
:103E80000FF00E380E380E380E381FF0000000000C
:103E90000000000007F00E381C381C001C001C003D
:103EA0001C001C001C001C380E3807F0000000002D
:103EB000000000001FE00E700E380E380E380E386D
:103EC0000E380E380E380E380E701FE0000000005D
:103ED000000000001FF80E180E080E000E300FF044
:103EE0000FF00E300E000E080E181FF80000000034
:103EF000000000001FF80E180E080E000E300FF024
:103F00000FF00E300E000E000E001F00000000002B
:103F10000000000007F00E381C381C381C001C0084
:103F20001C001CF81C381C380E3807F80000000074
:103F3000000000001C701C701C701C701C701FF0B6
:103F40001FF01C701C701C701C701C7000000000A6
:103F5000000000000FE003800380038003800380E3
:103F6000038003800380038003800FE000000000D3
:103F70000000000001FC0070007000700070007014
:103F8000007038703870387038700FE00000000032
:103F9000000000001E380E380E700EE00FC00F80BB
:103FA0000F800FC00EE00E700E381E3800000000AB
:103FB000000000001F000E000E000E000E000E009C
:103FC0000E000E000E080E180E381FF8000000003C
:103FD000000000001C1C1E3C1F7C1FFC1FFC1DDC85
:103FE0001C9C1C1C1C1C1C1C1C1C1C1C0000000001
:103FF000000000001C1C1C1C1E1C1F1C1F9C1DDC28
:104000001CFC1C7C1C3C1C1C1C1C1C1C0000000000
:104010000000000003E007F00E381C1C1C1C1C1CD8
:104020001C1C1C1C1C1C0E3807F003E000000000C8
:10403000000000001FF00E380E380E380E380FF05A
:104040000FF00E000E000E000E001F00000000001A
:104050000000000003E00F780E381C1C1C1C1C1C08
:104060001C1C1C7C1CFC0FF80FF8003800FC000026
:10407000000000001FF00E380E380E380E380FF01A
:104080000FF00E700E380E380E381E38000000008B
:10409000000000000FF01C381C381C381C000FE01A
:1040A00007F000381C381C381C380FF000000000E6
:1040B000000000001FFC19CC11C401C001C001C0E8
:1040C00001C001C001C001C001C007F00000000034
:1040D000000000001C701C701C701C701C701C7098
:1040E0001C701C701C701C701C700FE00000000025
:1040F000000000001C701C701C701C701C701C7078
:104100001C701C701C700EE007C0038000000000D3
:10411000000000001C1C1C1C1C1C1C1C1C1C1C9CCF
:104120001C9C1C9C0FF80FF8077007700000000023
:10413000000000001C701C701C700EE007C00380A3
:10414000038007C00EE01C701C701C700000000093
:10415000000000001C701C701C701C701C700EE0B5
:1041600007C003800380038003800FE0000000008D
:10417000000000001FF81C381838107000E001C063
:10418000038007000E081C181C381FF800000000F0
:104190000000000007F00700070007000700070005
:1041A0000700070007000700070007F000000000F5
:1041B00000000000100018001C000E000700038023
:1041C00001C000E000700038001C00070000000083
:1041D0000000000007F000700070007000700070B8
:1041E0000070007000700070007007F000000000A8
:1041F0000000018003C007E00E701C3800000000C2
:1042000000000000000000000000000000000000AE
:10421000000000000000000000000000000000009E
:104220000000000000000000000000007FFF7FFF92
:10423000000000001C001C00070007000000000038
:10424000000000000000000000000000000000006E
:104250000000000000000000000000000FE00070FF
:1042600000700FF01C701C701C700FD80000000054
:10427000000000001E000E000E000E000FF00E38B1
:104280000E380E380E380E380E381BF000000000C5
:104290000000000000000000000000000FE01C70A3
:1042A0001C701C001C001C701C700FE00000000043
:1042B0000000000000F80070007000700FF01C702B
:1042C0001C701C701C701C701C700FD8000000004B
:1042D0000000000000000000000000000FE01C7063
:1042E0001C701FF01C001C701C700FE00000000010
:1042F0000000000003E007700770070007001FE0E0
:104300001FE007000700070007001FC000000000B3
:104310000000000000000000000000000FD81C702A
:104320001C701C701C700FF007F000701C700FE008
:10433000000000001E000E000E000E000EF00F38F0
:104340000F380E380E380E380E381E3800000000B8
:104350000000000001C001C001C000000FC001C08A
:1043600001C001C001C001C001C00FF80000000081
:1043700000000000007000700070000003F000708A
:10438000007000700070007000701C700CF007E08E
:10439000000000001E000E000E000E000E380E7011
:1043A0000EE00FC00EE00E700E381E380000000048
:1043B000000000000FC001C001C001C001C001C069
:1043C00001C001C001C001C001C00FF80000000021
:1043D0000000000000000000000000001FF81C9C0E
:1043E0001C9C1C9C1C9C1C9C1C9C1C9C000000007D
:1043F0000000000000000000000000001FE01C7032
:104400001C701C701C701C701C701C700000000064
:104410000000000000000000000000000FE01C7021
:104420001C701C701C701C701C700FE000000000E1
:104430000000000000000000000000001BF00E382B
:104440000E380E380E380E380FF00E000E001F001A
:104450000000000000000000000000001FB038E075
:1044600038E038E038E038E01FE000E000E001F03C
:104470000000000000000000000000001EF00FF827
:104480000F380E000E000E000E001F00000000008E
:104490000000000000000000000000000FE01C30E1
:1044A0001C300F8003E0187018700FE0000000004F
:1044B0000000000000000100030007001FF00700DB
:1044C0000700070007000770077003E00000000006
:1044D0000000000000000000000000001C701C70C4
:1044E0001C701C701C701C701C700FD80000000029
:1044F0000000000000000000000000001C701C70A4
:104500001C701C701C700EE007C0038000000000CF
:104510000000000000000000000000001C1C1C1C2B
:104520001C1C1C9C1C9C0FF80770077000000000EE
:104530000000000000000000000000001CE01CE083
:104540000FC0078007800FC01CE01CE000000000C7
:104550000000000000000000000000000E380E38CF
:104560000E380E380E3807F003E000E001C01F805F
:104570000000000000000000000000001FE018E044
:1045800011C0038007000E201C601FE00000000027
:104590000000000001F803800380038007001C0076
:1045A0001C00070003800380038001F80000000066
:1045B000000001C001C001C001C001C001C001C0B4
:1045C00001C001C001C001C001C001C001C00000A4
:1045D000000000001F8001C001C001C000E00038E1
:1045E000003800E001C001C001C01F8000000000D1
:1045F000000000001F1C3B9C39DC38F80000000064
:1046000000000000000000000000000000000000AA
:10461000396E396E5976396E396E396E396E396E3A
:10462000396E396E396E396E396E396E396E39764A
:104630003A6E5A6E3A6E3976396E396E5A6E5A6ED5
:10464000396E396E396E396E396E396E396E396E32
:1046500059765A6E5A6E396E396E5A6E396E396E97
:10466000396E396E396E396E396E396E396E5A6EF1
:104670005A6E5A6E5A6E3A6E196E3A6E5A6E5A6E7B
:104680005A6E196E396E5A6E5A6E5A6E396E396E8E
:10469000396E396E396E5A6E396E3A76596E3A768F
:1046A0007A765A765A765A765A765A765A765A766A
:1046B0005A767A765A76196EF96D196ED775757DB8
:1046C000D77D1876D86DF86D977D977DF875F86D64
:1046D0005A767A765A765A765A765A767A765A761A
:1046E0003A76396E396E5A76397639763976397640
:1046F000397639765A765A76D86D5575CF8C8C8C3A
:10470000AC944BAD8BB5CB9CED7BEF7BB394B7B545
:1047100076ADD394928C3575396E5A763976397672
:1047200039765A76396E3A76396E396E5A763976E6
:1047300039763976397639765A763A6E356D4D84D2
:10474000EAA4C8E685FF66F785FF27EFECA415A568
:104750007EF7FFFFFFFFFFFFFFFF5DEFF49C157586
:1047600039765A6E397639765A76396E3A76396EA6
:10477000396E5A7639763976397639765A76F975C8
:10478000926C8A94A8E685FF66F786F785F786FF20
:104790002AAD97B5FFFFFFFFFFFFFFFFFFFFFFFF02
:1047A000FFFFDFFF14A53575396E5A7639765A76D4
:1047B000396E3A76396E396E5A7639763976397677
:1047C0005A76F975316CA99C67F785FF66F766F72D
:1047D00066F7A5FF29CE74AD7EEFFFFFFFFFFFFF59
:1047E000FFFFFFFF5DEFBEF7FFFF5DEFB38CB76D1F
:1047F0005A6E39765A76396E3A76396E396E5A76FD
:10480000397639765A6E396E9274A89C67F786F7B6
:1048100066F766F766F766F7A5FF89B5B8B5FFFFD7
:10482000FFFFFFFFFFFFFFFFBAD6107C9AD6FFFF06
:10483000FFFFF49C976D5A6E39765A76396E3A7648
:10484000396E396E5A7639763A765A767575CB9CCA
:1048500066F786F766F766F766F766F766F7A5FF09
:10486000EABD1AC6FFFFFFFFFFFFFFFFFFFF39C6CC
:10487000B3941CE7FFFFFFFFD7BD767D396E3A7614
:104880005A76396E3A76396E396E5A7639765A6E6C
:10489000D86DAE8CC8E685FF66F766F766F766F7F3
:1048A00066F766F7A5FFEBC51AC6FFFFFFFFFFFF20
:1048B000FFFFFFFFFFFFFFFFFFFFFFFFFFFF59CEDF
:1048C000767D196E5A765A76396E3A76396E396E29
:1048D0005A765A765A767675CA9C85FF66F766F7D9
:1048E00066F766F766F766F766F7A5FFA9BDF9BD37
:1048F000FFFFFFFFFFFFFFFFFFFFFFFFFFFFFFFFC8
:10490000FFFFFFFF14A55575597639765A76396E33
:104910003A76396E396E5A765A6EF86DCF8488DEE3
:1049200085F766F766F766F766F766F766F766F780
:10493000A5FFA8BD97ADDFFFFFFFFFFFFFFFFFFF54
:10494000FFFFFFFFFFFFFFFFDFFFB29C0F74F87553
:104950005A6E5A76396E3A76396E396E5A765A767A
:10496000B86D6B8C85FF66F766F766F766F766F7D6
:1049700066F766F766F785FF07E72FA55BCEFFFFB3
:10498000FFFFFFFFFFFFFFFFFFFFFFFFFFFFF8BD80
:104990004DAD2C84B76D5A765A76396E3A767A6E6A
:1049A0007A6E7A767B6ED86DAB94A5FFA5FFA5FFD6
:1049B000A5FFA5FFA5FFA5FFA5FF65F766F7C5FF46
:1049C00026CEB0945BCEFFFFFFFFFFFFFFFFFFFF90
:1049D000BFF719C6EEA4E6E60B9DB86D5A6E5A767F
:1049E000396E3A76F87DF464356D356DD36C0B7C99
:1049F000C9C5C9BDC9BDC9BDC9BDE9C588B508C658
:104A000067F766F766F7A6FF26CEEE9C77ADD9BDB1
:104A10005BC63BC6F9BD75AD4BAD27EFC5FFEB9C43
:104A2000D86D7B6E7A6E396E3A760C53518418C607
:104A300018C618C6F7BD18C618C618C618C618C6B0
:104A400018C656A5CE7BE8C5A5FF66F766F7C5FF75
:104A5000E7E648AD69B5CBBDCBBD8AB5EBA449D679
:104A6000C7E688DEAB9C557DB77DB77D5A6E5A6E22
:104A7000EC5AFBDEFFFFFFFFFFFFFFFFFFFFFFFF23
:104A8000FFFFFFFFFFFFFFFFFFFF56ADE99CC5FFE4
:104A900066F766F766F785FFC5FFA5FFA5FFC5FFAB
:104AA00008CE69BC09BC0ABC0ABC89A3CBA3ECAB89
:104AB000ECA3B27C396EB294FFFFFFFFFFFFFFFF54
:104AC000FFFFFFFFFFFFFFFFFFFFFFFFFFFFFFFFF6
:104AD000BCD66BB5A5FF66F766F766F766F766F7AF
:104AE00066F785FF89DECA9387C2C5EAC6E2C6E2D9
:104AF000E6E2C5EAC5EAC5E2E98214758E73DFFF16
:104B0000FFFFFFFFFFFFFFFFFFFFFFFFFFFFFFFFB5
:104B1000FFFFFFFFFFFFF9BD0AA5A5FF66F766F7D8
:104B200066F766F766F766F786F707EF6AA4E89A0E
:104B3000E7AAE8AAE8AAE8AAE8AAE8AAE8A20F84ED
:104B4000967DEB52518CB7BDD7BDD7BDD7BDF8BD53
:104B5000B8B5B8B5B8B5B8B5D9BD169DAF7389BDF0
:104B6000A5FF66F766F766F766F766F766F785F7F7
:104B7000C8E64AA4E8B2C6CAE7C2E7C2E7C2E7C2CB
:104B8000E7C2C7BAAD83557D356DB35C7675767572
:104B90009775F56C2C8469D649CE29CE29CE49CE9D
:104BA000C8BDC6C527EF86F766F766F766F766F7EE
:104BB00066F766F785F7E8E6EA93A7BAE6DAE6DA93
:104BC000E6DAE6DAE6DAE6DAE6D2E98255759B76E7
:104BD0007A6E7A6E5A6E7A6EF96DCF8448D6C4FFBB
:104BE000A5FFA5FFA5FFA5FFC5FF85FF66F766F733
:104BF00066F766F766F766F766F766F786FF68D6C4
:104C0000CABC8ABCEAA3CC9B2E9C4E9C4E9C4F9C5B
:104C100055753A6E396E396E5A76397639765A76D6
:104C20009775AD9408EF85FF66F766F766F766F748
:104C300066F766F766F766F766F766F766F766F78C
:104C400066F766F786FF47F789DE8C945575F87529
:104C5000F875F87518765A6E5A76396E396E5A7636
:104C6000397639765A763A76F36C4A8C08EF85FFB6
:104C700066F766F766F766F766F766F766F766F74C
:104C800066F766F766F766F766F785FF28EF6994BB
:104C9000F36C5A6E5A6E5A6E5A6E7A6E396E3A7656
:104CA000396E396E5A763976397639765A76196E82
:104CB00093644A8C08EF85FF66F766F766F766F738
:104CC00066F766F766F766F766F766F766F785FFD5
:104CD00008EF4A947264196E5A76397639763976C5
:104CE0005A76396E3A76396E396E5A763976397621
:104CF000397639765A763A6E146D4C8CA9BD66F7C2
:104D000065F766F766F766F786F766F766F766F79C
:104D100065F766F7C9BD4C8CF46C3A6E5A763976F5
:104D20003976397639765A76396E3A76396E396E01
:104D30005A76397639763976397639765A765A6EA0
:104D40009775907C2B84AABD27EF65F766F765F70A
:104D500066F765F727EFAABD2B84907C97755A6E8E
:104D60005A76397639763976397639765A76396E91
:104D70003A76396E396E5A763976397639763976A9
:104D8000397639765A765A76F96D976D347DAE8CD0
:104D9000AC94AC942B84AC94AC94AE8C337D976D76
:104DA000F96D5A765A763976397639763976397692
:104DB00039765A76396E3A76396E5A767A767A76C6
:104DC0007A767A767A767A767A767A767A767A7663
:104DD0007B765A76196EF975F975F96DF975F9756D
:104DE000196E5A767B767A767A767A767A767A76CB
:104DF0007A767A767A767A767A765A763A6E396EE4
:104E0000396E5A7639763976397639763976397611
:104E100039763976397639763A6E5A6E5A6E5A6ED6
:104E20005A765A6E5A6E5A6E3A6E397639763976A5
:104E300039763976397639763976397639765A76D9
:104E400039763A76000020002300260029002C0045
:104E50002F00320000010000030106010901005E7D
:104E6000BCE2613FDD83C29C7E20A3FD1F419DC348
:104E7000217FFCA2401E5F01E3BD3E6082DC237DFA
:104E80009FC1421CFEA0E1BF5D0380DE3C62BEE02C
:104E9000025CDF81633D7C22C09E1D43A1FF46185A
:104EA000FAA427799BC584DA3866E5BB5907DB8508
:104EB0006739BAE406581947A5FB7826C49A653BBA
:104EC000D987045AB8E6A7F91B45C6987A24F8A6EC
:104ED000441A99C7257B3A6486D85B05E7B98CD21A
:104EE000306EEDB3510F4E10F2AC2F7193CD114FC8
:104EF000ADF3702ECC92D38D6F31B2EC0E50AFF17A
:104F0000134DCE90722C6D33D18F0C52B0EE326CAB
:104F10008ED0530DEFB1F0AE4C1291CF2D73CA94D9
:104F20007628ABF517490856B4EA6937D58B570987
:104F3000EBB536688AD495CB2977F4AA4816E9B739
:104F4000550B88D6346A2B7597C94A14F6A8742A6B
:104F5000C896154BA9F7B6E80A54D7896B350000F7
:104F60002100240027002A002D0030003300010119
:104F70000000040107010A010000220025002800AA
:104F80002B002E0031003400020100000501080151
:104F90000B010505050507050808080802020202BD
:104FA0000A0A0808040404040101010101010101C5
:104FB0000303030303030303040707070C0C0C0C90
:104FC0000C0C0C0C02020202060606060606060679
:104FD0000B0B0B0B0B0B0B0B010210202008081006
:104FE0002040102040800201020108040201010259
:104FF0000408102040808040201008040201800432
:10500000020180402010080402010804020101028C
:105010000408102040800102040810204080000095
:105020000A0B02090C0D0E08070304010000000022
:105030000000000000000000000000000000000070
:10504000000000000000000000001211100000002D
:105050000000000000000000000000000000000050
:1050600000000000A46F11241FBECFEFD1E2DEBF0D
:10507000CDBF00E00CBF13E0A0E0B2E0E6EFFAEE37
:1050800000E00BBF02C007900D92A23EB107D9F716
:1050900025E0A2EEB3E001C01D92A835B207E1F70A
:1050A00018E2C3E3D8E200E006C021970109802F8F
:1050B000FE010E947175C233D10780E00807A9F78D
:1050C0000E94566D0C9479750C9400000895089513
:1050D0008150823108F075C0E82FF0E08827EC5845
:1050E000F74D8F4F0C94717598289C2886288C2832
:1050F0009228E128A028A628AC28B228B828BE28E3
:10510000C428CA28E128D028D628DC28E0E8F0E026
:1051100080818F7780830895E0E8F0E080818F7D43
:1051200080830895E0E8F0E08081877F80830895A0
:1051300084B58F7784BD089584B58F7D84BD08952F
:10514000E0EBF0E080818F7780830895E0EBF0E082
:1051500080818F7D80830895E0E9F0E080818F7702
:1051600080830895E0E9F0E080818F7D8083089559
:10517000E0E9F0E08081877F80830895E0EAF0E055
:1051800080818F7780830895E0EAF0E080818F7DD1
:1051900080830895E0EAF0E08081877F808308952E
:1051A000E0E2F1E080818F7780830895E0E2F1E032
:1051B00080818F7D80830895E0E2F1E08081877FA8
:1051C000808308951F93CF93DF93282F30E0F90158
:1051D000E25EFF4A8491F901E852F04B1491F90123
:1051E000EE56F04BC491CC23A9F0D62F811116C0F6
:1051F000EC2FF0E0EE0FFF1FE858F04BA591B491B3
:105200008FB7F894D1110CC09C91E12FE095E92360
:10521000EC938FBFDF91CF911F91089559DFE8CFB5
:10522000EC91E12BEC93F5CFCF93DF9390E0FC0171
:10523000E852F04B24918E56904BFC0184918823C8
:1052400019F190E0880F991FFC01E25AF04BA591EB
:10525000B491FC01E858F04BC591D491662349F014
:105260006230A9F08FB7F894EC91E22BEC938FBFEA
:105270000BC09FB7F8948C91E22FE0958E238C930E
:105280008881E823E8839FBFDF91CF9108959FB77E
:10529000F8943C91822F809583238C93E881E22BB4
:1052A000E8839FBFF1CF789484B5826084BD84B5D4
:1052B000816084BD85B5826085BD85B5816085BD11
:1052C000EEE6F0E0808181608083E1E8F0E010822A
:1052D000808182608083808181608083E0E8F0E06B
:1052E000808181608083E1EBF0E080818460808355
:1052F000E0EBF0E0808181608083E1E9F0E0808193
:1053000082608083808181608083E0E9F0E0808139
:1053100081608083E1EAF0E0808182608083808127
:1053200081608083E0EAF0E0808181608083E1E257
:10533000F1E0808182608083808181608083E0E20F
:10534000F1E0808181608083EAE7F0E08081846021
:10535000808380818260808380818160808380817E
:10536000806880831092C10008958230910538F0E2
:10537000880F991F880F991F05970197F1F70895D6
:105380003FB7F8948091540590915505A09156052A
:10539000B091570526B5A89B05C02F3F19F001967F
:1053A000A11DB11D3FBFBA2FA92F982F8827BC017F
:1053B000CD01620F711D811D911D660F771F881F22
:1053C000991F660F771F881F991F08958F929F92CC
:1053D000AF92BF92CF92DF92EF92FF926B017C016E
:1053E000CFDF4B015C011AC021E0C21AD108E108ED
:1053F000F10888EE880E83E0981EA11CB11CC11430
:10540000D104E104F10451F0BBDF681979098A097C
:105410009B09683E73408105910530F7C114D104A2
:10542000E104F10461F7FF90EF90DF90CF90BF901F
:10543000AF909F908F9008952FB7F894609150058A
:105440007091510580915205909153052FBF089599
:1054500085EC8093BC00109229050895811104C049
:1054600085E88093BC00089585EC8093BC00089586
:10547000AC0120910505260F3327331F213231055A
:10548000F4F4809129058430E1F490E00FC0E091BC
:105490000505292F30E0E20FF32FF11D240F351FF2
:1054A000D9012C91EB51FB4F20839F5F961778F326
:1054B00080910505680F6093050580E0089581E0FF
:1054C000089582E00895ECEBF0E080818A7B808390
:1054D00060E084E177DE60E085E174CE08951092AB
:1054E000290581E080932B0510922A0561E084E173
:1054F00069DE61E085E166DEE9EBF0E080818E7FC8
:10550000808380818D7F808388E48093B80085E4E8
:105510008093BC000895EF92FF920F931F93CF9357
:10552000DF9391E09093E404811107C0DF91CF9164
:105530001F910F91FF90EF900895C8EBD0E0F88095
:105540000AEB10E0F801E080BEDFC9DFF801E0827D
:10555000F882ECCF6FEF7FEF81E090E03BC00895E1
:1055600008958FEF9FEF08958FEF9FEF089580913B
:10557000D20490E09195819591090895CF93DF939E
:10558000CB01C42FD52F642F73DF8C2F9D2FDF917C
:10559000CF910895CF93DF931F92CDB7DEB7698384
:1055A00061E0CE01019664DF81E090E00F90DF9131
:1055B000CF910895FC011382128288EE93E0A0E05F
:1055C000B0E084839583A683B7838AEE92E09183CB
:1055D00080830895019709F008956F3F7F4FE1F7A9
:1055E00083ED94E0E7DFF8CFDC01E0E09FEF960F7A
:1055F000662361F09D012F5F3F4F8C91E827F0E01B
:10560000E25AF14BE491692FD901F0CF8E2F089522
:10561000DC011B961C921B971D961C921D971C96D5
:105620001C921C9727E030E0FD01E20FF31F13826C
:105630002115310519F021503109F6CF08950F9346
:105640001F93CF93DF93FC011081C181D281F89425
:105650008981812B89838A81012F009580238A8308
:1056600083E090E082DE8981802389838AE090E074
:105670007CDE8881812359F4C0E0789485E390E052
:1056800074DE8C2FDF91CF911F910F910895C1E0AF
:10569000F4CF0F931F93CF93DF938C01D0E0C1E041
:1056A00001C0CC0FCC2331F0C801C9DF8823C9F376
:1056B000DC2BF7CF8D2FDF91CF911F910F910895A4
:1056C0001F93CF93DF93FC011081C181D28160FDD4
:1056D00017C0F8949A81812F809589238A838981C4
:1056E000812B898381E490E040DE8A81182B1A8324
:1056F000789485E090E039DEDF91CF911F91089595
:10570000F8949A81812F809589238A838981812BBE
:1057100089838AE090E029DE8A81182B1A837894A5
:1057200087E390E022DEE8CFFF920F931F93CF93A1
:10573000DF938C01D62FF42EC1E004C060E0C801D5
:10574000BFDFCC0FCC2329F08C2F8D23B9F361E080
:10575000F6CFF11015C0F894D8011196ED91FC9197
:10576000129791818C918095892381831196ED9177
:10577000FC91129792818C918095892382837894F1
:10578000DF91CF911F910F91FF90089540E06CEC55
:10579000CBCF0895EF92FF920F931F93CF938C017D
:1057A0007B0140E065E5C0DFC0E0C83048F4F701A8
:1057B000EC0FF11D40E06081C801B6DFCF5FF5CF8F
:1057C000CF911F910F91FF90EF900895FF920F934B
:1057D0001F93CF93DF93FC01D08101811281F89454
:1057E000F8018181FD2EF0948F2181837894CDE79B
:1057F000C15021F182E090E0B8DDF80180818D2375
:10580000B9F3F89482818F21828381818D2B8183EA
:10581000789480EE91E0A9DDF894F8018181F82276
:10582000F18286E490E0A1DDF8018081D823C1E017
:1058300009F0C0E078948AE991E097DD8C2FDF9140
:10584000CF911F910F91FF900895BF92CF92DF9259
:10585000EF92FF920F931F93CF93DF93EC016B01B5
:10586000142FBD84BB2071F01B861D861C8680E032
:10587000DF91CF911F910F91FF90EF90DF90CF902C
:10588000BF900895A3DF882359F0112369F040E009
:1058900060EFCE0149DFFB2C01E0EE24E3944CC025
:1058A0001B861D861C86E4CF40E06CEECE013CDFFB
:1058B000F2CF813009F048C080E48E15A8F6BB868F
:1058C000B11002C081E08D878B81882369F290E05E
:1058D00080E0883091050CF04CC0F601E80FF91F0C
:1058E000DE01A80FB91F13962C9120830196F1CFEA
:1058F0008B85E81648F4FE01EF0DF11D83818023AE
:1059000011E029F410E003C011E08E1110E0111134
:105910001DC088E08E1518F0EC86BE2C17C0BE2C7A
:1059200015C0FE01EF0DF11D8381802B838318C00C
:1059300087E08F1508F4C0CFCE0181DE182FCE018D
:105940007EDE113009F4B5CF181791F2113049F30A
:10595000FE01EF0DF11D8381902F909589238383A4
:10596000612FCE01ADDEE394000F11F7F39401E057
:10597000DFCF81E07DCF1F93CF93DF93EC01162F14
:1059800060E0812F51DC612F70E0FB01E852F04BA9
:10599000E491E883FB01EE56F04BE491F0E0EE0F6A
:1059A000FF1FEC5BF14B859194919A838983CE0123
:1059B0002FDEDF91CF911F910895FC01738B628BD5
:1059C0000895813824EE92076CF0BC01072E000C7C
:1059D000880B990B0E94957220E030E040E05CE378
:1059E0000C94F47260E070E08EEF92EC0895FA018E
:1059F000818190E0982F8827990F990F990F208126
:105A000030E0220F331F220F331F220F331F822B50
:105A1000932BDB012C91203109F00895880F991FF9
:105A2000880F991F880F991F9C012078678170E06B
:105A30008681AB01481B5109CA019695982F88278A
:105A4000979587950E945E75CB01820F931F4097B3
:105A5000E4CF6A3069F06B3041F0693019F08EEEB6
:105A600092E008958EE590E0089587E791E008952B
:105A70008CEB90E00895FC0186819781E0DD91E058
:105A8000813009F090E0892F08958F929F92AF9214
:105A9000BF92CF92DF92EF92FF920F931F93CF931B
:105AA000DF93EC01D6DF8C018B81882319F088818C
:105AB000882391F0B801110F880B990B87DCDF91D7
:105AC000CF911F910F91FF90EF90DF90CF90BF90FB
:105AD000AF909F908F900895AFDC6B017C01CE0159
